{
    "contractName": "ConvertLib",
    "abi": [
        {
            "inputs": [
                {
                    "internalType": "uint256",
                    "name": "amount",
                    "type": "uint256"
                },
                {
                    "internalType": "uint256",
                    "name": "conversionRate",
                    "type": "uint256"
                }
            ],
            "name": "convert",
            "outputs": [
                {
                    "internalType": "uint256",
                    "name": "convertedAmount",
                    "type": "uint256"
                }
            ],
            "stateMutability": "pure",
            "type": "function"
        }
    ],
    "bytecode": "60ed610039600b82828239805160001a60731461002c57634e487b7160e01b600052600060045260246000fd5b30600052607381538281f3fe730000000000000000000000000000000000000000301460806040526004361060335760003560e01c806396e4ee3d146038575b600080fd5b60476043366004606a565b6059565b60405190815260200160405180910390f35b600060638284608b565b9392505050565b60008060408385031215607c57600080fd5b50508035926020909101359150565b600081600019048311821515161560b257634e487b7160e01b600052601160045260246000fd5b50029056fea2646970667358221220a71e26fbc9902c635cb0a1cec2bd839fbde9f1c861a957875bf3378a6c7ec3f864736f6c634300080f0033",
    "sourcePath": "/home/chenxun/uniswap/v1-demo/contracts/ConvertLib.sol",
    "compiler": {
        "name": "solc",
        "version": "0.8.15+commit.e14f2714"
    },
    "functionHashes": {
        "convert(uint256,uint256)": "96e4ee3d"
    },
    "gasEstimates": {
        "creation": {
            "codeDepositCost": "47400",
            "executionCost": "130",
            "totalCost": "47530"
        },
        "external": {
            "convert(uint256,uint256)": "358"
        }
    }
}