{
    "contractName": "UniswapExchange",
    "abi": [
        {
            "inputs": [
                {
                    "internalType": "address",
                    "name": "_token",
                    "type": "address"
                }
            ],
            "stateMutability": "payable",
            "type": "constructor"
        },
        {
            "inputs": [
                {
                    "internalType": "address",
                    "name": "account",
                    "type": "address"
                },
                {
                    "internalType": "uint256",
                    "name": "_balanceOfToken",
                    "type": "uint256"
                },
                {
                    "internalType": "uint256",
                    "name": "_balanceOfEth",
                    "type": "uint256"
                }
            ],
            "name": "addLiquidity",
            "outputs": [
                {
                    "internalType": "bool",
                    "name": "",
                    "type": "bool"
                }
            ],
            "stateMutability": "nonpayable",
            "type": "function"
        },
        {
            "inputs": [
                {
                    "internalType": "uint256",
                    "name": "_eth",
                    "type": "uint256"
                }
            ],
            "name": "buyByEth",
            "outputs": [
                {
                    "internalType": "bool",
                    "name": "",
                    "type": "bool"
                }
            ],
            "stateMutability": "nonpayable",
            "type": "function"
        },
        {
            "inputs": [
                {
                    "internalType": "uint256",
                    "name": "_balanceOfToken",
                    "type": "uint256"
                },
                {
                    "internalType": "uint256",
                    "name": "_balanceOfEth",
                    "type": "uint256"
                }
            ],
            "name": "removeLiquidity",
            "outputs": [
                {
                    "internalType": "bool",
                    "name": "",
                    "type": "bool"
                }
            ],
            "stateMutability": "nonpayable",
            "type": "function"
        },
        {
            "inputs": [],
            "name": "showBalanceOfEth",
            "outputs": [
                {
                    "internalType": "uint256",
                    "name": "",
                    "type": "uint256"
                }
            ],
            "stateMutability": "view",
            "type": "function"
        },
        {
            "inputs": [],
            "name": "showBalanceOfToken",
            "outputs": [
                {
                    "internalType": "uint256",
                    "name": "",
                    "type": "uint256"
                }
            ],
            "stateMutability": "view",
            "type": "function"
        },
        {
            "inputs": [],
            "name": "showEthPrice",
            "outputs": [
                {
                    "internalType": "uint256",
                    "name": "",
                    "type": "uint256"
                }
            ],
            "stateMutability": "view",
            "type": "function"
        },
        {
            "inputs": [],
            "name": "showLiquidity",
            "outputs": [
                {
                    "internalType": "uint256",
                    "name": "",
                    "type": "uint256"
                }
            ],
            "stateMutability": "view",
            "type": "function"
        },
        {
            "inputs": [],
            "name": "showTokenPrice",
            "outputs": [
                {
                    "internalType": "uint256",
                    "name": "",
                    "type": "uint256"
                }
            ],
            "stateMutability": "view",
            "type": "function"
        }
    ],
    "bytecode": "608060405260006001556000600255600060035560405161079d38038061079d833981016040819052610031916100b0565b6001600160a01b03811661008b5760405162461bcd60e51b815260206004820152601960248201527f746f6b656e20616464726573732063616e6e6f74206265203000000000000000604482015260640160405180910390fd5b600080546001600160a01b0319166001600160a01b03929092169190911790556100e0565b6000602082840312156100c257600080fd5b81516001600160a01b03811681146100d957600080fd5b9392505050565b6106ae806100ef6000396000f3fe608060405234801561001057600080fd5b50600436106100885760003560e01c80639d7de6b31161005b5780639d7de6b3146100d9578063b1e44cba146100ec578063d2edae33146100f4578063f9adc223146100fc57600080fd5b80630f758a531461008d578063474c340e146100a857806355776b77146100ae5780635a995529146100d1575b600080fd5b610095610110565b6040519081526020015b60405180910390f35b47610095565b6100c16100bc366004610525565b610158565b604051901515815260200161009f565b610095610338565b6100c16100e7366004610566565b6103b4565b6100956103f3565b610095610460565b6100c161010a366004610588565b50600090565b600080610128600180546104a290919063ffffffff16565b90506000610141826003546104c090919063ffffffff16565b60025490915061015190826104d3565b9250505090565b600080546040516370a0823160e01b81526001600160a01b038681166004830152859216906370a0823190602401602060405180830381865afa1580156101a3573d6000803e3d6000fd5b505050506040513d601f19601f820116820180604052508101906101c791906105a1565b101561020d5760405162461bcd60e51b815260206004820152601060248201526f3737ba1032b737bab3b4103a37b5b2b760811b60448201526064015b60405180910390fd5b81846001600160a01b03163110156102585760405162461bcd60e51b815260206004820152600e60248201526d0dcdee840cadcdeeaced0408aa8960931b6044820152606401610204565b60005460405163a9059cbb60e01b8152306004820152602481018590526001600160a01b039091169063a9059cbb906044016020604051808303816000875af11580156102a9573d6000803e3d6000fd5b505050506040513d601f19601f820116820180604052508101906102cd91906105ba565b506001546102db90846104a2565b600155604051309083156108fc029084906000818181858888f1935050505015801561030b573d6000803e3d6000fd5b5060025461031990836104a2565b600281905560015461032b91906104ef565b6003555060019392505050565b600080546040516370a0823160e01b815230600482015247916001600160a01b0316906370a0823190602401602060405180830381865afa158015610381573d6000803e3d6000fd5b505050506040513d601f19601f820116820180604052508101906103a591906105a1565b6103af91906105f2565b905090565b6001546000906103c490846104d3565b6001556002546103d490836104d3565b60028190556001546103e691906104ef565b6003555060015b92915050565b600080546040516370a0823160e01b81523060048201526001600160a01b03909116906370a0823190602401602060405180830381865afa15801561043c573d6000803e3d6000fd5b505050506040513d601f19601f820116820180604052508101906103af91906105a1565b60008061047960016002546104a290919063ffffffff16565b90506000610492826003546104c090919063ffffffff16565b60015490915061015190826104d3565b60006104ae8284610611565b9050828110156103ed576103ed610629565b60006104cc828461063f565b9392505050565b6000828211156104e5576104e5610629565b6104cc8284610661565b600082600003610501575060006103ed565b61050b82846105f2565b905081610518848361063f565b146103ed576103ed610629565b60008060006060848603121561053a57600080fd5b83356001600160a01b038116811461055157600080fd5b95602085013595506040909401359392505050565b6000806040838503121561057957600080fd5b50508035926020909101359150565b60006020828403121561059a57600080fd5b5035919050565b6000602082840312156105b357600080fd5b5051919050565b6000602082840312156105cc57600080fd5b815180151581146104cc57600080fd5b634e487b7160e01b600052601160045260246000fd5b600081600019048311821515161561060c5761060c6105dc565b500290565b60008219821115610624576106246105dc565b500190565b634e487b7160e01b600052600160045260246000fd5b60008261065c57634e487b7160e01b600052601260045260246000fd5b500490565b600082821015610673576106736105dc565b50039056fea2646970667358221220a65e77aa7267c0b67e9536ebb242a7132bfab8e7bb849e3ac99c1138773fd72964736f6c634300080f0033",
    "sourcePath": "/home/chenxun/uniswap/v1-demo/contracts/UniswapExchange.sol",
    "compiler": {
        "name": "solc",
        "version": "0.8.15+commit.e14f2714"
    },
    "functionHashes": {
        "addLiquidity(address,uint256,uint256)": "55776b77",
        "buyByEth(uint256)": "f9adc223",
        "removeLiquidity(uint256,uint256)": "9d7de6b3",
        "showBalanceOfEth()": "474c340e",
        "showBalanceOfToken()": "b1e44cba",
        "showEthPrice()": "d2edae33",
        "showLiquidity()": "5a995529",
        "showTokenPrice()": "0f758a53"
    },
    "gasEstimates": {
        "creation": {
            "codeDepositCost": "342000",
            "executionCost": "infinite",
            "totalCost": "infinite"
        },
        "external": {
            "addLiquidity(address,uint256,uint256)": "infinite",
            "buyByEth(uint256)": "346",
            "removeLiquidity(uint256,uint256)": "infinite",
            "showBalanceOfEth()": "206",
            "showBalanceOfToken()": "infinite",
            "showEthPrice()": "infinite",
            "showLiquidity()": "infinite",
            "showTokenPrice()": "infinite"
        }
    }
}